:10000000759000758000C290D2917C0075F00A74E2
:1000100038118F11A9740E118F11A97401118F114C
:10002000A97406118F11A97AFF758920758BC57582
:100030008DC57400D290118AC2903091FDD28E305D
:100040008FFDC28EC28F042091F3FC114F80DAEC39
:1000500075F00A8485F04275F00A8485F04175F0E8
:100060000A8485F0407484118F11A9E5402430F58D
:1000700050119C11A9E5412430F551119C11A9E5BD
:10008000422430F552119C11A9227E02DEFE22F597
:10009000A0C2B7C2B6D2B511A9C2B522F5A0D2B7D7
:0E00A000C2B6D2B511A9C2B5227FFFDFFE2283
:00000001FF
